:20000000004000200185000001C9011001C9011001C9011001C9011001C9011001C90110D8
:1C00200001C9011001C9011001C9011001C9011001C9011001C901103FC9011089
:20003C002DE9F04FA8A7ABA6ADF1240D0097ACA40196AC4D0294686800210FF270280A46F9
:20005C00434609F0F7FB0097019602946868002143460A4609F0EEFB03270020012107F03D
:20007C00EDFD0120014607F0E9FDD24C204600F053FB0020014607F0E1FD0120002107F0FE
:20009C00DDFD204600F048FB7F1EE6D1CA4CCB494EF66022012304F1400007F0DBFFC84952
:2000BC002061022008F0AEFFC648801C277E0088022104AAADF8140080208DF8157009F0D8
:2000DC00A3FE0FF20C3828B16868002143460A4609F0B0FB9DF8100000909DF8110001906B
:2000FC0068680021BFA30A4609F0A4FB9DF81000C1A3A5281ED0686800210A4609F09AFB16
:20011C0068680021C3A30A4609F094FB002604F1B4092E272676207EB04202DC05F032F83E
:20013C0033E007FB0690C2A1C2A209F041FF761CF6B2F0E7686800210A4609F07BFB686867
:20015C000021C0A30A4609F075FB9DF8110004F1B4094F460026207614E0384600210D22DB
:20017C0006F01DFDA6F17F000D213A46C0B209F04BFE28B16868002143460A4609F05AFBEA
:20019C002E37761C207EB042E7DC207E009068680021B1A30A4609F04DFB4FF0000A2E2757
:2001BC005646217E6868B14200F3C28109F11E00AD4F06903868079060684FF0FF3100F0E7
:2001DC00AFFAA068C008C0F05181022009F0FEF9C7B2002F677040F08780A1786868B9425C
:2001FC00804613D05146D8A30A4609F023FB4E460A2784F818A0304651460D2206F0CFFCCB
:20021C002E367F1EF7D16778D5F80480A770CB460A2657460699584608F0D9FE50B9761E2B
:20023C000BF12E0B07F10107F4D10698CDA35746009006E0009706980190207E0127CDA38B
:20025C000290514640460A4609F0F4FA6E68002F40F00D81207E2E2101FB009006990D2292
:20027C0005F06CFC207E0090207E2E21CDA301FB0090514601900A46304609F0DBFA207E94
:20029C005746401C2076217E6E68B94240F3EF802E2051460097CAA300FB07900A46019045
:2002BC00304609F0C7FA7E1CF7B2ECE7436F6D70696C653A2025732025732C20566572737D
:2002DC00696F6E3A2025730041707220203620323031380031313A32333A323500C046C0DE
:2002FC00312E300008020020A1786868B94206460AD05146B8A30A4609F09CFAA4F820A0F2
:20031C0004F040FF67786E68A7705746207EB84240F3AD80D4F8148006992E2000FB07904E
:20033C0008F055FE00284FD00120B84008EA0001884210D040EA080060610097069901919E
:20035C00029099F92D005246AAA302210390304609F070FA6E6809F015FA6076207E617E8B
:20037C00884240F0848027782069002F7FD109F076FA079942F210775246ACA3B0FBF1F085
:20039C00B0FBF7F00221C0F13C000090304609F051FA84F822A0C4F814A0A06884F800A083
:2003BC0040F01000A060606800F0BEF9D9480AF033FA5BE0A0860100880800207D75000026
:2003DC00F592000064BA00007F1CFFB29EE7C0466F73616C5F736E765F726561642066613E
:2003FC00696C00C0524F4D5F434845434B3A20257820257800C046C02D2D2D2D2D2D2D2DBF
:20041C002D2D2D2D2D2D2D2D2D2D2D2D2D2D2D2D2D0D0A0057726974652064656661756C10
:20043C007420706172616D65746572730D0A00C0257300C061356135613561356135613525
:20045C0000C046C05265616420706172616D65746572730D0A00C046546F74616C207461D4
:20047C00673A2025640D0A0090BA00006E68A168E0684A0914D33C21009177A30190514624
:20049C0030460A4609F0D6F95046014607F0D6FB0120014607F0D2FB21466E68E06889686B
:2004BC000A0914D30090514679A330460A4609F0C1F9E0680121401CE060504607F0BEFB1E
:2004DC000120514607F0BAFB20466E688168880908D3514630467AA30A4609F0ABF98C4820
:2004FC006E680168C8090BD35146304679A30A4609F0A0F987480AF08FF920466E68816871
:20051C00080A08D35146304677A30A4609F092F97F486E680168480A05D35146304676A381
:20053C000A4609F087F9A06820F4FE70A06043E6009607FB069173A3019151460A4609F06C
:20055C0079F9761CF6B22CE6537461727420547261696E696E67203C2D2D2D2D2D2D2D2D93
:20057C002D0D0A004E6F742045786973742025730D0A00C01B5B33326D2045786973745B5E
:20059C0025645D3A202573202D2D2069645F696E6465783A2025303878201B5B306D0D0AE0
:2005BC0000C046C01B5B33326D2053617665645B25645D3A2025731B5B306D0D0A00C0469B
:2005DC004375725F69645F65786973745B25645D3A2025730D0A00C053746F702054726126
:2005FC00696E696E67203C2D2D2D2D2D2D2D2D2D0D0A00C01B5B33326D466F756E645B253E
:20061C00645D3A202573202D2D2069645F696E6465783A2025303878202D2D207273736973
:20063C003A2025641B5B306D00C046C0466F756E6420616C6C2074616720616674657220DF
:20065C002564532D2D3E205374617274206E6577207363616E0D0A001B5B33346D204E4F8F
:20067C00205741524E494E4720414654455220256473202D20546F74616C205761726E69E8
:20069C006E673A2025641B5B306D0D0A00C046C01B5B33316D205741524E494E47212121B6
:2006BC002121202D20546F74616C205761726E696E673A2025641B5B306D0D0A00C046C0A2
:2006DC00427574746F6E20707265737365640D0A00C046C0427574746F6E2072656C6561EA
:2006FC007365640D0A00C04653544152545F5343414E0D0A00C046C053544F505F5343411A
:20071C004E0D0A0049445B25645D3A20257300C090080020C8080020DFF800F0A5A501100E
:20073C00DFF800F0059B0110DFF800F0E1A301102DE9FF47C94C0F460646F80B80F064815F
:20075C00B80880F05181E07ADFF81C93B90F80F0CA80607A002840F0AA803809C0F0A980A3
:20077C00A07A20B10020A072052008F001FD00254FF00108BA49657004F174002A4684F88B
:20079C0007800AF02DF8207901281AD16079C0B9DFF8D0A2DAF8000000284DD04846006842
:2007BC00006B804761695346401A000BA0611968E2698018B0EBC11F98BFE0613CD9E56150
:2007DC0001E084F80480DFF8A492A9F115000068000A31D340F60900A08694F8410000F0C8
:2007FC00F00040F0010084F84100E58694F8400000F0F00084F84000A56309F0EBFF4B46B0
:20081C0003F6FF7211686FF0020C21F00201116004F13401C3F8FBCF954AC3F8EB1F11681B
:20083C008908FCD3C3F8FBCFD3F8FF1F41F00201C3F8FF1F00F028F98E4A10688E4920F079
:20085C000200656140F400701060032341F8043C41F230038B604046086050238B600860FC
:20087C004FF4CA638B60086041F80C0C0220156008F07EFC112004F0A5FD307C10B90E20D5
:20089C0004F0A0FDE5712572A07818B906F1380009F0B4FF794809F08FFE79490878F8B1C8
:2008BC000D7004F1D000042109F0B0FF18E0380914D2B80BC0F0C98004F1240009F09AFF87
:2008DC00061C08D0706830B17568F068B6F91C1000222023A84727F40057B6E000206072EB
:2008FC0027F00807B1E020B1042008F041FC0020E072B168088840F602054FF00008854295
:20091C000AD0B0F5C15F07D00A8B4FF61F60104040F43470088306E00A8A4FF61F601040AB
:20093C0040F4347008826069E0B1D9F85400016804208847B0B1D9F80000006B8047616930
:20095C00814226BF401A401E401A000BF060708AF168401840F6C411F06081422CBFB0F50D
:20097C00FA7FF16094F8410010F00F0F0BD1708CED1D854207D1B56930466FF480714246B5
:20099C004FF00073A8473F4904F17400424609F027FF607958B10220ADF80000684608F0B3
:2009BC006DFE84F80580BDF80800A4F8700001206070E078401CE07004F1200084F80680DA
:2009DC0009F018FF002808BF47F0020702D0192009F004FF7569414630464FF080630A4668
:2009FC00A84727F0005730E004F12C05284609F001FF03F0D9FE284609F0FCFE27F0020796
:200A1C0008B147F0020720E009F0E4FE014604F1280009F0EFFE0646B569A80810D27EB171
:200A3C0025EA0500B061084600F02EF8706850B12A46F068B6F91C1075680023A84702E0C4
:200A5C00084600F021F827F4804727B104F1D000394609F0DBFE0090BDE8FF8788100020E0
:200A7C00C59A0000941F00208C0100101500044010100440000004600C410440B5490000DB
:200A9C00901F0020AD420000DFF800F061C001102DE9F04F09AFADF13C0D08900A9238889B
:200ABC0009911E46ADF81800101C08BF002000F08481002700F101094FF0FF3A4FF0010B72
:200ADC00B8466CE1252940F063811078521C0A922D2818BFADF8068005D15846551CADF8DA
:200AFC00060010780A9530281CBF4246434605D10A9908785A465B46491C0A912A28CDF818
:200B1C000080554616D1306804930A99CDF808A0C01C4B1C20F00300001D306050F8044CDD
:200B3C000A93002C0878009418D5ADF806B06442009413E044460AE0610001EBC401401869
:200B5C000A99A0F1300408780094491C0A91302801DB3A28F0DBCDF808A004932E282BD146
:200B7C000A9908782A2801F101010A9111D13068CDF80880C01C20F00300001D306050F8AA
:200B9C00045C002D48BF454608782B46491C0A9111E0454643460AE0690001EBC5014018C7
:200BBC000A99A0F1300508782B46491C0A91302801DB3A28F0DB02930AB1224604926C287C
:200BDC0004D04C2818BFADF8048005D10A990878ADF804B0491C0A910BA9CDF80C800FABA0
:200BFC0007916428059300F08B80692800F08880BDF818C0752872D078286ED06F286AD07E
:200C1C00702850D063283DD073281ED009980A990128A1F101010A9115D96B490C68B5F187
:200C3C00FF3F03D0A84288BF6D1C00D8099D029508A80AA932466B46A047C7190A99039827
:200C5C0001F1010974E040462AE030680A99C01C20F00300001D306050F8040CBCF1000FAD
:200C7C0001F10109014608B955A00146079109F083FB0390B5F1FF3F5BD0A842C4BF281CB6
:200C9C00039056E03068C01C20F00300001D306010F8040C5D468DF82C000A9903955846F6
:200CBC0001F1010945E0082035680490E81C20F00300001D306050F8041C082210230FA85E
:200CDC0006F06EF9401E0790402101700A99079801F1010929E0082302E0102300E00A2340
:200CFC000A99306801F10109C01C20F00300001D306050F8041CAA42BCBF2A1C049210E06A
:200D1C000A99306801F10109C01C20F00300001D306050F8041CAA42BCBF2A1C04926FF0DA
:200D3C0009030FA806F03CF90790059D281A0390009C241ABDF8065000945DB906E008A876
:200D5C00202109AA08F0A0FD009C7F1C641E0094F5D503980546401E039075B9BDF8060017
:200D7C00E8B10098401E009019D408A8202109AA08F08AFD00987F1CF4E70798411C079186
:200D9C00017809AA08A808F07FFD03987F1CE1E708A809AA08F078FD7F1C09F101094A46EA
:200DBC000A9812F8011C401C00290A907FF48AAE089808B14146017038460FB0BDE8F08FD2
:200DDC00286E756C6C2900C0A0BA00002DE9F84FDFF8F4B10746ABF13500DFF8E09100682A
:200DFC00800880F0D98071480068006880477A490831D1F8008000254FEA28725FEA9851C7
:200E1C0002F101020AD2C0F13E0110F10A0F4FEAE101D8BF08218A42B8BF0A1C644BD3F81C
:200E3C007C11C1F304611629A8BF20391B68C3F30443162BA8BF203B9A465118162905DA07
:200E5C0011F10A0FB8BF6FF0090100E01521594B594E01F01F0242F4F8521A80326812F052
:200E7C00030F18BF0125D20828BF45F002050FB145F004054A4692F90730C31A052B04DA0F
:200E9C009379AB4208BF918866D0DFF834E10F28A0F10F0C25DB0CEB0013A3F1F00C4FEA85
:200EBC002C26072E88BF07263446062C88BF06245EF82470042303EB84037446E358DB1B8D
:200EDC0003F0FF04EF0824BFC3F307273C44AF0824BFC3F307473C446F0828BF04EB1364E0
:200EFC0001E0002426465EF826E0EF080EF0FF0324BFCEF307273B44AF0824BFCEF3074718
:200F1C003B446F0828BF03EB1E63A4B2ACEB0626AAEB01017443002904F1800403EB14233B
:200F3C00D8BF0121342408F0FF074C43A1B27943B1FBF3F14FF6FF738B4238BF191C802800
:200F5C0089B2918005DA10F1800FB8BF6FF07F0000E07F20D07195711A4800681F2910601D
:200F7C004FF0000008D340F2FF128A4206D24908401C8A42FBD301E01F219180134F0F3931
:200F9C00090940EAC10047EA0001CBF8FB1F0026CBF8FF6FBDE8F88F0D490E4F4A4608203B
:200FBC000F60921D1070BDE8F88FC046EC0100103C1100506E62084024220840981F00202E
:200FDC009C130050082009403500094000E7A48030100940FDFDA400AC3F00504FF0FF312B
:040FFC0001607047D9
:20100000B41200001810000015AB0110FDB301106DC00110FDAE011099B5011000000000F7
:08102000000000002D0000009B
:20102800B01200003C100000B1C00110A9BF011067C0011069B80110000000000000000035
:041048003000000074
:20104C00B012000060100000BDC00110CDB30110D9BD01106DB3011000000000000000005B
:04106C00310000004F
:20107000000000006018002004000000000000000000000020000000E8C9011030000000B2
:2010900028100000681800200400000000000000000000000C000000D8CA0110180000008D
:2010B0004C1000007018002004000000000000000000000024000000F0CA01101800000011
:2010D00000000000781800200400000000000000000000001000000018CA01102C0000001D
:2010F0000010000088180020040000000000000000000000200000006CCA01102400000081
:20111000FFFFFFFF901800200400000000000000000000002800000090CA01102400000040
:20113000FFFFFFFF981800200400000000000000000000001400000008CB011018000000BF
:20115000FFFFFFFFA018002004000000000000000000000058000000B4C90110340000008D
:20117000FFFFFFFFA81800200400000000000000000000001000000020CB0110180000005B
:20119000FFFFFFFFB01800200400000000000000000000001C000000B4CA01102400000088
:2011B000FFFFFFFFB81800200400000000000000000000003800000044CA011028000000B0
:2011D000FFFFFFFFC01800200400000000000000000000005400000078C901103C00000025
:0811F0000100000094BA0000A8
:0411F80001000000F2
:0411FC0000000E00E1
:0412000000000F00DB
:0412040032000000B4
:0412080001000000E1
:04120C009C1700200B
:0412100000020000D8
:0412140000000000D6
:0412180001C90110F7
:04121C0000000000CE
:0412200000000000CA
:0412240008000000BE
:0412280000002200A0
:04122C002016002068
:0412300000000000BA
:0412340000000000B6
:0412380008000000AA
:04123C004417002033
:0412400000000000AA
:0412440000000000A6
:04124800080000009A
:04124C00000000009E
:04125000000000009A
:041254000000000096
:041258000000000092
:04125C00010000008D
:04126000B81600209C
:041264000600000080
:041268000100000081
:04126C004015002009
:04127000000000007A
:041274000000000076
:041278000002000070
:04127C00000000006E
:02128000290043
:02128200010069
:02128400250043
:02128600300036
:02128800310033
:02128A002D0035
:02128C0001005F
:01128E00015E
:08129000030000003CBA00005D
:0812980000000000000000004E
:0412A0000000010049
:0412A4000000030043
:0412A80013C401105A
:0412AC00D9A20000C3
:0412B000B812000070
:0412B400B81200006C
:0412B8000000000032
:0412BC0024180020D2
:0412C0002FA4000057
:0412C4002000000006
:0412C800B4B90000B5
:0412CC0004B8000062
:0412D00029C101101F
:0412D400C7A50000AA
:0412D80055A8000015
:0412DC00A1C7011095
:0412E000A3C701108F
:0412E4000000000006
:0412E800D9B9000070
:0412EC0040B6000008
:0412F00058B60000EC
:0412F40028B6000018
:0212F8000200F2
:0212FA000900E9
:0212FC000100EF
:0212FE000000EE
:0113000001EB
:04130400BDA3000085
:041308007D8F0000D5
:04130C009D9B0000A5
:041310005D920000EA
:04131400C392000080
:04131800A5830000A9
:04131C00196D000047
:04132000B9A500006B
:0413240091790000BB
:0413280015C70110D4
:04132C0025C70110C0
:201330002DE9F84FDFF8BC92AF4989F80000002008600821AD4801700D2141804FF40871E0
:201350008180AB48AB4901608A7EAB480270FF2ACB7E437008BFFF2B0C7F84704E7FC6702F
:201370008D7F0571C97F417114D1FF2C08BFFF2E10D1FF2D08BFFF290CD1A0490A78027027
:201390004A7842708A788270CA78C2700A790271497941719A490278DFF868A2DFF868B2C8
:2013B0000A70FF2642784A7082788A70C278CA7002790A714079954A48718AF800608AF8F7
:2013D00001608AF802608AF803608AF804608AF8056000208E490880DBF834408D49607892
:2013F000087021781170A0788B490870A16808798A49421E0A70E07889490870E0688949F4
:20141000086008B908F094FD60698749086008B908F08EFDA0698549086008B908F088FD48
:20143000DFF80C82834C98F8040009F041F8206000283ED098F805007F4D09F039F82860D9
:2014500008B9206832E098F806007C4F09F030F8386020B9206809F033F8286826E098F85C
:20147000070009F025F87649086038B9206809F027F8286809F024F8386817E063490A781D
:2014900098F80000921C504380B209F011F86D498860216890B9084609F012F8286809F0ED
:2014B0000FF8386809F00CF86548006809F008F8002008F03DFD4FF480418DE0012008710D
:2014D0002068067321684E73206886732168CE7320680674002021684E742268D072A0226B
:2014F0002168487103212068C280017207202168487200202268907228212068418201216D
:20151000C176002021684877226882F85E00012021680877226882F85D0029680871286896
:20153000067329684E73286886732968CE7328680674002029684E742A68D07229684871DA
:201550002A6890724FF4207029680022C88008818A7401212A68D17439680E733A6856730C
:2015700039688E733A68D67339680E7400213A6856743B68D97201213A68117100213B6826
:2015900059713968C8800881002088723968887405203A68D0742C480168884723490A68B3
:2015B00006461068804721490A6852F8043F00209847DBF80C101A4B0A8818782349024301
:2015D0000A80304622490A689047504609F0CCFA09F0C6FA4FF4005199F80000BDE8F44F2C
:2015F00003F038BE6E4F0020044F0020604E0020084F0020B63F00502C4E0020E812005034
:201610003C4E0020344E0020ACBA00007B4F00200C4F00206D4F00206B4F0020724F00200C
:201630006C4F0020F04E0020F84E0020FC4E002058180020104F0020144F0020184F002078
:201650001C4F0020701F0020DC130020544F0020E0130020BB482DE9F84F0025BA4CB849CF
:20167000056094F8E200002800F06581012800F02F81B64E02283CD0032840F05C8151F805
:20169000250CD4F8B8100029A0F5C060C4F8D400B8BF49420028B8BF4042814226DA4FF0E2
:2016B0008057D7F8A4014568B4F8BC0030214FF47F42082300903046A847D7F8A401456824
:2016D000B4F8C00004214FF4F802122300903046A847D7F8A401B4F8D070456820214FF471
:2016F00040620A2330460097A847012584F8D8501CE151F8258C08F07DFF2F4600B9012784
:201710003946934F38680028FCD0B146012609F10409D9F82CA03E6009B108F071FFCAF385
:201730000720C4F8BC0008F065FFAA4600B9B2463B68002BFCD0D9F800B0BAF1000F3E608A
:2017500001D008F05DFFCBF38440C4F8C00008F051FFAA4600B9B2463B68002BFCD0D9F802
:201770001C90BAF1000F3E6001D008F049FFC9F38120C4F8D000B8F5C061C4F8B81000F019
:201790009C8094F8D80068B9C4F8D410D4F8C000C4F8C800D4F8BC70C4F8C470D4F8D03034
:2017B000C4F8CC30D4F8D410D4F8BC30002954BF02206FF0010004F1C802176801EB4101CF
:2017D0004018411000EB917107EBA1001060D4F8C810C4F8C43000291CDD1E293CDDD4F8BE
:2017F000CC0030B93429B4BF15391E21C4F8C81025E02A29BABFD4F8C8000B381E20C4F891
:20181000C800D4F8C4003F28B4BF401C3F20C4F8C4001FE0D4F8CC00032812D011F10B0F8B
:20183000C6BFD4F8C8000B30301CC4F8C800D4F8C4000028C4BF401E051CC4F8C4500325C2
:2018500008E011F1150FC6BFD4F8C8001530301CC4F8C800C4F8CC504FF08057D7F8A401DA
:20187000B4F8C43030214FF47F424568374800930823A847D7F8A40104214FF40032112348
:20189000456832480096A847B4F8C860D7F8A40104214FF4F802122345682C480096A84707
:2018B000D7F8A40120214FF440620A23B4F8CC60456826480096A84701E084F8D85040F222
:2018D000FF50404502D8801C40452FD2082030E051F8251C1F4F4BF2F5204843060A38686B
:2018F000C0F3814001280CD11B4800680068804707F04AF808F08AFE3111C010484306EB1D
:20191000E03694F8E50030B91448006820F07F408019460801E084F8E5501148310C06603F
:20193000012741600F4D8760287808B90B2000E0052084F8E40001F033FCBDE8F88FC04648
:201950002D400C402C500C40C012002000A00C4000800C40B43F0050EC0100101020094093
:201970003C600C40EAB900002DE9F04FB24C04F108012046ADF11C0D06F036FA04F110051E
:201990000021284609F0E8F8E560AC4D05F1180005F10C0104F026F9A949A86008F03CFE41
:2019B000A84EA8684FF4E0213246521E07F0CCFBA8684FF4E021324607F0C6FBA24EA868A3
:2019D0004FF0C0513246521E07F0BEFBA8684FF0C051324607F0B8FB9C4905F12400C822A4
:2019F000002306F03DFB9A48002168604FF0804005F0E0FE984E974D6060022242F2107384
:201A1000642031466870102001F038FA1020032242F21073314601F031FA9048A86007F01A
:201A30002BFB024668780027BB460090022301978B49CDF808B01020CDF80CB001F01EFAC8
:201A500088491020012201F019FA606862A339463A4607F0F5FE04F25E384FF0FF36A06890
:201A700059464FF04042334609F072F8071C18D0584604900DF1160104AA05A807F000FC7A
:201A900078B9BDF81400102807D120789DF81610884202D1049800F055FF049808B108F00F
:201AB0006EFEF80FDBD3E06809F04EF80028D6D1E068054609F044F8854208BF5D4602D0D4
:201AD000856807F0F3FA002DAA46ECD02888401E78D0401E7CD1AD780FF2181928093BD3B5
:201AF000E77894F90200002F38D1401C41B2627860688A421EDDA170491C5A463AA3009174
:201B1000022107F09DFE94F90200676808EBC000801C06F009FA034603215A46384607F0D8
:201B30008FFE606805215A464B4607F089FE062131A30DE0A6704B4602215A4607F080FEA4
:201B5000606803215A464B4607F07AFE05212EA360685A4607F074FE94F90200690937D316
:201B7000B0F1FF3F34D1E07820BB0120E07084F801B0606802215A4626A307F061FE60682E
:201B900003215A464B4607F05BFE606804215A464B4607F055FE606805215A4621A307F0DF
:201BB0004FFE606806215A464B4607F049FE07F0FDFC0DE007F060FA2B490246102001F05F
:201BD0005DF905E0686800F0BDFE686808F0D7FD504607F06BFA66E7424C45204F627365E8
:201BF0007276657200C046C044657669636520256400C04600C046C03C2D204E6578742043
:201C10004F7074696F6E00C0446973636F766572202D3E00446973636F766572696E672E06
:201C30002E2E00C043616E63656C20446973636F76657279202D3E00080200208C150020E4
:201C5000A58C00000E0005800E0000101DA3000021A70000C80D0020BD8401104CB90000BE
:201C7000E999000051B300102D8E00002DE9F04F0F46834C0168E16241688068ADF1140D8E
:201C9000E0608048A16080477F48E16A0160A168DFF814A24160E168DFF8089281607B495B
:201CB000002FA346C1605AD03D68A86808B178490160E86808B177490160774C2878207004
:201CD00068786070A878BE68A07031787368E170B26863602E69A2607968E6610868E060CB
:201CF00068692062A8696062287F84F828002A6AE262786886681EB9002008F019F900E0DC
:201D100066617868C06818B9002008F011F900E0A0617868406818B9002008F009F900E0BD
:201D300020612869E061F86881680E6806B95C4E5A494FF001084E60C66881F801802EB970
:201D5000002008F0F5F8F8684D4601E04D462E6000685446FE68A0617068E06106E00020F1
:201D700008F0E6F84FF0010854464D4628684F494668621C04F114035020B04710B12868F0
:201D900080688047DBF8080080470026494F039069467E7046483E7004222061304607F0A4
:201DB000B9FA0098B0F5801F0ED020B907F006FD02F05AF90AE006F001FC08F0EDFA4FF093
:201DD0000409A7F8029003E007F0F8FC4FF00409394FB2462868C7F808A08069A66080476E
:201DF00078603648468080F800800A2008F060FBFF210A22A06208F01BFDE01CFF210222A4
:201E100008F016FD0A2008F053FB2D49086008680A22314608F00CFD3046FFF781FA4046D8
:201E300006F0A2FE27480188FF2906D1022101807822001D314608F0FBFC032008F07CFEAF
:201E50002F682148314602AA01AB7D6880F800901020A847A06AE2690527401D9DF808100C
:201E700000F8011BDBF80C107F1EF7D1921E0398E261884700F04EFE05B0BDE8F08FC04672
:201E9000D413002041490010F844002080AB0000A7A70000ADA7000058160020381800206A
:201EB000CF980000D8180020181700200D9B00000DA10000D4150020641F00208410002096
:201ED000A41F002070140020B51F00202DE9F04F8246DAF800600C465FEA0208ADF11C0DBC
:201EF00014BF00214FF0FF3106F14800834608F08DFA002818BF0B2040F00681002565700D
:201F10008448F460B8F1010F057004D065700220F46007F047FA2078012840F2AB80801E50
:201F3000012868D9801E012833D9801E012800F2DF8008F055FC06904FF0805000F5EE77F4
:201F5000D0F8DC01A378466A009321782846062908BF0120019001200290A068228AE1680F
:201F70006368B04781460698FEF794FDB9F1000F40F0C080B8F1000F02D008F0B3F802E06C
:201F9000504607F0D9FC002800F0A4803868806A2AE008F025FC06904FF0805000F5EE77E7
:201FB000D0F8DC01012306680093A168A27860682478AC46042C08BF9C466346B04781468E
:201FD0000698FEF767FDB9F1000F40F09380B8F1000F02D008F086F802E0504607F0ACFCE7
:201FF000002877D03868406880474949C1F8B0510D6081467EE008F0F3FB06904FF08050EA
:2020100000F5EE76D0F8DC01E38A87690093E0680190208B0290A0780390207D04900121AE
:20203000059122782846022A08BF081CE1786268A368B84781460698FEF72CFDB9F1000F72
:2020500058D1B8F1000F02D008F04CF802E0504607F072FC00283DD03068006A80475FEA5D
:20207000000947D13068C569A168E28A2369E078A847BEE708F0B4FB06904FF0805000F53B
:20209000EE76D0F8DC01E38AC7680093E0680190208B0290A0780390207D29460490012076
:2020B0000590257805B9014608466268A368E178B84781460698FEF7EDFCB9F1000F19D178
:2020D000B8F1000F02D008F00DF802E0504607F033FC08B9142017E03068406980475FEA8E
:2020F000000907D1306802692169E078904780E74FF0FF39B8F1010F02D0022007F03EF87B
:20211000584608F081FB484607B0BDE8F08FC04650450240B41F00202DE9FE4F05467E48F0
:20213000002400680094C0090ED37C48007858B97C497B4851F8112C104040F0817041F8C0
:20215000110C202006F05CFA012D40F0E080DFF80092D9F8DC00012840F0D6800220C9F860
:20217000DC0007F079FD012006F04AFA5FEA000805D00120C9F8DC0007F07EFDC9E008F0B4
:2021900047FBA34602906848684DC0F800B0A86A016801208847012804D1584605F016F89B
:2021B000012000906248634FC0F800B03868112008F03EFA00B10124102008F039FA08B1AF
:2021D00044F002040F2008F033FA08B144F004040B2008F02DFA20B12868574E016B3088F8
:2021F00088470A2008F024FA20B12868534E016B308888475248012606602868816944F0F6
:20221000200088474F48066008F00CFA00F001010191400814D2286A81684B48884782466D
:20223000BAF1040FF7D0BAF1010F04D1286A42684548032190474549086820F0030008603C
:202250005846FEF7C9FD2B683868986B8047019801280CD0BAF1010F04D1286A42683A482C
:20227000314690473949086840F0030008603048066028684169204688470B2008F0D8F932
:2022900020B128682C4BC16A188888470A2008F0CFF920B12868294BC16A188888472848F3
:2022B00006600322C9F8DC20264BC3F800B02868416B204688470128F9D13868042006F0CC
:2022D0009FF90446184806603868134800688009FBD30098012802D1304604F077FF08F020
:2022F0008FF9082006F08CF907460298C9F8DC6008F01EFC05F0D6F807F0BEFC57EA0400F4
:2023100018BF4FF0FF3804E06FF0040801E06FF001084046BDE8FE8F14100940A8130020C8
:20233000FFFFFCFC150009400C400940B8010010000222432C200940BEB50000BAB50000FD
:2023500028200860800104430040034024220840C01200202DE9F04F94460E1C04461F46EA
:20237000ADF1440D4DD07448357801684FF0010B0BFA05F0014244D0BCF1000F666040D041
:20239000BCF80000B0F5C15F2FD1DCF81400DCF818606A4BDCF81C50DFF8A4910E904FF0A2
:2023B000030E0DF134080F9618681095C0F3036A58F8046FB6B10021331F05200A4653F87B
:2023D000045FA94506D0401E01F1040102F10102F5D107E0052A05DA705820F4702040EA2A
:2023F0000A407050BEF1010EE2D1C4F808C008F0F7F982465E48801C007820B15046FEF708
:2024100049FB002094E001F0DBFB4E49086840F0020008600AA808F02BF84B4E4FF00508BA
:202430000AAA4A49CDF8308006F1D00006F042FB0AA808F005F800254FF0FF0919210AABD4
:202450008DF83050424ACDF82C9006F1740006F05DF90AA808F00CF80AAA3E49CDF8308045
:2024700006F5827006F026FB0AA807F0E9FF8DF830B0394ACDF82C9006F190001A210AABD7
:2024900006F044F935492A4606F1AC00134605F0F1FE334808F096F8324A2B46042106F121
:2024B000480007F00DFA4FF6FF70A6F8700086F805B086F873503571B571F57135727572D0
:2024D0007561B572B378F572581CB0705046FEF7E1FA1FB903AF384607F036FF386820600F
:2024F0007868E060387C84F811B02074788A60821D4EA6616661F86800B1A061B86800B127
:2025100060612946782204F1200004F04EFB04F13800294607F0E4F8684608F021F9134904
:20253000029404F170002A466B4605F0A3FE204611B0BDE8F08FC046D42108405413005094
:202550000200F844002009408810002085A10000C59A0000BD6A0000AD7C0000B1A40000E2
:20257000B54900002580000033840000B9A70000881000202DE9F0411C4615468C4208BF40
:20259000854282BF00230022E5E0002C08BF002D0AD100290EBF00286FF000006FF0000141
:2025B00000F0E1F8BDE8F0815FF000085FF0000E002C08BF8D429CBF2C1C0025070C47EAAA
:2025D00001470E0CB44208BFBD429EBF5FEA044444EA15445FEA0545070A47EA01670E0A03
:2025F000B44208BFBD429EBF5FEA042444EA15645FEA0525470847EAC1774E08B44208BF5C
:20261000BD4200F29380870847EA81778E08B44208BFBD427CD8C70847EA4177CE08B442C4
:2026300008BFBD4266D8070947EA01770E09B44208BFBD4250D8470947EAC1674E09B442DC
:2026500008BFBD423AD8870947EA81678E09B44208BFBD4224D8C70947EA4167CE09B44224
:2026700008BFBD420DD8E60146EA5566EF01B14208BFB84201D3C01BB14158EB08085EEBEC
:202690000E0EA60146EA95664FEA8517B14208BFB84201D3C01BB14158EB08084EEB0E0E6A
:2026B000660146EAD5666F01B14208BFB84201D3C01BB14158EB08084EEB0E0E260146EA74
:2026D00015762F01B14208BFB84201D3C01BB14158EB08085EEB0E0EE60046EA5576EF0052
:2026F000B14208BFB84201D3C01BB14158EB08084EEB0E0EA60046EA9576AF00B14208BF83
:20271000B84201D3C01BB14158EB08084EEB0E0E660046EAD5766F00B14208BFB84201D38E
:20273000C01BB14158EB08085EEB0E0EA14208BFA84201D3401BA14158EB08085EEB0E0EA7
:20275000A34208BFAA423EBF2D0A45EA0465240A89D3734642461E4617460B460246314669
:202770003846BDE8F08170472DE9F04F6C4CE2680746880FADF1140DC0F0CF8050684068A5
:2027900008B18047E2685168664E886808B9CD6875B13568002DFCD00022326010B1804714
:2027B000E0684168C86800B180475F4806F06CFF4FF00008C6F800805C4846F81C0C5C4835
:2027D00007F000FF40F60A09A4F834902379A4F83680BD6894F84000C34604F1340A00F03F
:2027F000F00084F84000012BC4F838B094F84100A5F8028000F0F00040F0010084F8410093
:2028100001D17B7CABB1B8680088A9F10801814208D0B0F5C15F05D0298B4FF60F40084073
:20283000288304E0298A4FF60F400840288287F811804048016883680193C368406B0091D9
:202850001022694620F0784040F0805003903A48029303F079F9494600E01D466B6813B147
:2028700018888142F9D1C5F804A0687B00F0F000687304F1200007F0C3FF80680088A9F144
:202890000701814220D0491C81421DD03B8CEBB197F82C0097F82D30C7F824B000F0F000DB
:2028B00087F82C0003F0F00040F0010087F82D0007F12002A2639AF80D00A7F8228000F0AE
:2028D000F0008AF80D0001E0C4F8148030680028FCD0C6F80080B968A37A0A8A4FF6FF3028
:2028F0001040088283B91548006801680120884701280FD0687B00F0F00040F001006873BD
:202910000F4807F05FFE05E006F05CF80028FBD006F076F8B86846F81C0C05B0BDE8F08F17
:20293000881000201C1004400100070601010E044D0700004C13005018000021E001001010
:20295000E17500002DE9FF470178D02940F0B28005466E4CA87867786668002800F09380E4
:20297000401E00F089800C3840F0A48095F80490642F05F105081CDA67B104F5587A3E4644
:2029900040465146062207F0CBF890B1761E0AF1080AF5D141460B6804EBC70000F25E324E
:2029B000901C0360898881807F1C82F80190FEB26670E878564C04283BD000287AD10120ED
:2029D00006F040FB28690178022905D14178012902D18178052905D0C17802296AD10079E1
:2029F0000A2867D104F1C30000210F2204F0DDF804F1D20800210F22404604F0D6F82F7A78
:202A1000EE79AA7A6B7AA979687995F90B5084F8E1500097019602910390404627A107F004
:202A3000CDFAA06840F00400A0606068FDF782FE40E0002006F006FB286927A1801C06F025
:202A5000CCFA002836D004F1C30000210F2204F0ACF804F1D20600210F22304604F0A5F8AA
:202A7000287A0090E8790190A879029068790390AA7A6B7AB046D0E70120E070022118A3F6
:202A90000097304611E0E81C05F04EFA034601210022304606F0D4FE60680221002215A357
:202AB00006F0CEFE6068052115A3002206F0C8FE06F07CFD0090BDE8FF87C0462530327891
:202AD000253032782530327825303278253032782530327800C046C06954414700C046C01A
:202AF0004465766963657320466F756E6420256400C046C0496E697469616C697A65640002
:202B1000446973636F766572202D3E0008020020880800202DE9FE4F674D664C674F2868F2
:202B3000626A066904F1200339460120B04710B1286880688047DFF88881DFF8889106F0D5
:202B500023FF5FEA000B03D003F0A6FA4FF0FF3B002637E00098216910F8062CA0F10C07D3
:202B7000032A02D171B388472CE0A06A9DF805C005213246401E10F8013F9C4506D0491E80
:202B900002F10102F7D14FF0FF0A01E05FFA82FA2868BAF1FF0F00F1080011D0387906F09F
:202BB00091F9B979012904D0022904BF0099887001E0009908700099504607F0BDF801E01E
:202BD000006880472868C3690DF105016A4601A898470028BED0D9F8000030F8167027B9A9
:202BF000761CF6B2052EF8DB23E0052E21DAD8F808008047D9F800107700002231F807A06B
:202C1000CA53D8F80C1088472F4850F8262026705146304690470646FF202070D8F808007A
:202C30008047D9F800107A5A16437E52D8F80C10884706F0A9FE0746BB451AD007B9234F1E
:202C5000E069B84238BF071CD8F80800804782462868016A206A8847626A286817491C4B29
:202C7000521C6262C6683846B047D8F80C1050468847A7682968606914318FB9D9F8000057
:202C900005270026835B33B10969606988472968D9F8000014317F1E06F10206F2D103E01D
:202CB000096988472968143109684FF0FF30884745E7C04618170020D81800200D8F000012
:202CD000D4130020A41F0020A0B900008EC2F528381700202DE9F84F994692468B46064694
:202CF00007F07EFD604C0090B4F93210B4F930000AAF401A40F6F8710140082980F29E8096
:202D1000B4F9300004F59C75401C6FF31F3020860820B4F93080EB7F33F07F0304D0401E43
:202D300005F12005F7D1002506F1700007F054FDC5F808B085F81EA0C5F80490A5F81C8092
:202D50004A48EE6097E80C00202100271940104005F1100383E8030004F12000EF7703688A
:202D7000002B5ED1294606F023FA00285FD0A6F89480E87F40F08000E87796F8960001289B
:202D900004BF86F896706771207A40B1607830B10120607227726771E078401CE0700098C0
:202DB000FDF778FE606A00285BD16078002834D1A079012855D007F013FD8146E07940BBED
:202DD000A86806F063F82B4A2949E36812680860B0B1DD680868401BB0FBF2F0012898BFF0
:202DF000012104D9DB680868C01AB0FBF2F1AC34204607F0EDFC204607F0ECFC48462EE0A2
:202E10004846FDF747FE04F1D000042107F004FD27E0194901200870F0E7192007F0E4FC10
:202E30001FE004F12000294606F0C2F948B9B4F9300000F6FF706FF31F3020866FF001084C
:202E50000CE0A6F89480E87F40F08000E87796F89600012804BF86F8967067710098FDF756
:202E700019FE4046BDE8F88F88100020F1EFFF9F941F0020A01F0020901F00200FB42DE9E9
:202E9000F04106AF8046ADF1280D07F025FC3E1D26F00306361D30F0010001D107F0B1F92A
:202EB000CDF81A601420ADF816000025CDF80E50FF248DF818407B68CDF81E3007F034FE6D
:202ED000064607F009FC30F0010015D007F084F84E492A468446062031F80C7F4FB14B68C3
:202EF0001B689E4204D0401E02F10102F4D100E0D4B2604607F090F9404606F00BF901461F
:202F1000FF2905D0204603220DF11A0304F098FA07F00AFE06F08CFB2E460446009607F0B1
:202F3000DBFB30F0010067D00098A04264D041F2883001A906F01EFADDF80080002853D161
:202F500007F0EEFD019D01272D186068019B31464FF0005207F0FCFD00282CD00DF12200D4
:202F70000DF1230102AA04F0F5FBB8B99DF8220003A906F0B5F840B9029A07F08FFB0028DA
:202F90001CBFDDF80880371C15D10299684606F039FB60684FF0005107F0BEFD0198B0F1F9
:202FB000FF3FD2D00028D0D007F0BAFD281A02D00199814216D206F03CFF009E07F00CF888
:202FD000083401463EB1324652F80C0C40B9206842F80C0C2660084607F01EF9384603E07F
:202FF0000246F1E70190B0E730B9B8F1000F05D0404607F0C4FB01E007F003F9DDF81A0004
:2030100000680AB0BDE8F04104B070471C1400202DE9F04F8346ADF1140D0393BBF1000FBF
:2030300002920E9801910F9C049000F0AB80081C00F0A880101C00F0A580181C00F0A28097
:203050000498002800F09E80002C00F0A080206A002800F09780514D676A281D0068002F4E
:2030700000F09080A16AFDF761FB40B2002808BF6FF0020700F0828084F82C002078618881
:2030900000EB80004018216A143080B288474249086030B928464068FDF74CFB4FF0FF37EB
:2030B0006CE08A466088DAF800502178237805EB00096088421800EB4106AA18AF1902F1BC
:2030D000040803EB430283188918EE1840182D18204605F0F3F82078C01C8010C9F80000B7
:2030F0002078C01C8010C8F8000020780837C01C8010386020780C36C01C801030602078B3
:203110001035C01C801028602278594609F1040002F01AFD2278019908F1040002F014FDF2
:2031300022780299381D02F00FFD0095484641463A46334607F0ECFC47B222780398331DF7
:20315000194602F001FD22780498291D02F0FCFC22786188DAF8000002EB82025218002159
:2031700003F023FD616ADAF8000088470B484068FDF7E0FAF8B2992808BF002784F82C7086
:20319000384606E01CB16FF0010084F82C006FF0010005B0BDE8F08F884F0020501800202E
:2031B0002DE9F843614C5A4D5A4EDFF870815E4F94F8E4100846401E0B2864D8DFE800F0EB
:2031D0007B2C43062343062343067664042907D001220A2945F8212C14BF0220032004E05D
:2031F000202045F8210C0120024684F8E200002045F8390C0827C5F8FF7FC5F8F37F45F8D6
:20321000392CBDE8F883052914BF09200620002784F8E400376075E094F8E170383D0120E3
:20323000002FC5F81B0004BF0620002102D00021F160032084F8E400032045F8010C3160A8
:20325000306880085ED294F8E4103348012703290ED00068456800216022052300914046EA
:20327000A84794F8E400062814BF0A200720CFE700684568002160220523022000904046BF
:20329000A8470420C4E7FEE72548264F0026012506600E203D6002F09BF8022005F06EFF13
:2032B00084F8E45084F8E360BDE8F883002038600C25786024E04FF08059D9F8A0010168B7
:2032D000202088472C3D0F2045F8010C41F61D56C5F80360D9F8A401466800214FF4C07269
:2032F0000723022540460095B047D9F8A401C66800214FF4C07207234046B04701203860C1
:2033100084F8E45004F1780007F064FABDE8F88339400C4038600C40A401001000A00C40C1
:203330002C500C4004800C4034600C40C01200202DE9F04F8146ADF11C0D00F041FC06F00D
:203350008DF90026012804D106F060FE022808BF012651490868C0F38150012806D151F870
:203370000C0C0127010E07FA01F006434B48007806F07CFB4A4D2C46286038B1FF2204F1AB
:20339000400107467F1E01F8012BFBD1D9F800104FF0000801F0FF02FE2A1CD0CC4601F0D0
:2033B000FF0342460127FF2B0ED0984203D907FA03F31E4201D002206AE001F0FF0143EADB
:2033D0000808611881F840205CF8041F521C01F0FF03FE2BE7D1092002F06CF9C4F80490F2
:2033F00004F12400012106F07BF923683BB3002794354FF0040BBA460120B840064218D117
:2034100018EA000F04BF07F0FF0141F4C04104D0E01990F8400059F82010224801F0A2FC8C
:20343000F8B24FF0FF3106F02FFD2368C5F800A001E0C5F800B07F1C2D1D9F42DCD304A8EA
:2034500006F0FEFF184D194A2878102104AB059004F1080005F05AF9684607F009F800277A
:203470006A46686803971249029004F1600005F021FB104951F80D0C012620F4F85040F45D
:20349000005041F80D0C0C4DC1F8FF6F38462E6007B0BDE8F08FC046B43F0050B31F0020D8
:2034B000241C0020007FC76750BA0000B59E0000798400000D300940080009402DE9F8436D
:2034D0005A4DA5F12C0404F1200007F099F916460F46009007F084F906F001088146B7F1AE
:2034F000FF3F0CD1606A20B9B4F93200401C07B202E0606AB0F91C70002084F8730038469C
:2035100006F072F90327002800F08A80616A814258D0009B98422ED03BB100990A689042FC
:2035300009D0096800290091F7D1832F41D04846FDF7B0FA3DE004F1AC0007F04DF900982D
:203550000168B20802D20A6802600846002202600091009818B94846FDF79CFA28E0C17F64
:2035700041F00401C177684606F074FD0146284605F01EFEEDE704F1AC0007F02DF9B008A8
:203590003ABF206A0068002020624846FDF782FA0099C87F40F00400C877684606F05AFD42
:2035B0000146284605F004FE009808B1B008EFD28327A079012836D004F1D000022107F0B4
:2035D0002BF930E0B10803D3216A009100272762C27F012101FA08F11143C17707F018F961
:2035F0000446B8F1000F14BF1148124806F04CF84846FDF74FFAB00801D3009820B92046CB
:2036100007F096FA83270EE0C17F41F00401C177684606F01FFD0146284605F0C9FDECE7CA
:203630004846FDF737FA3846BDE8F883B410002001000204010001047CB5514A5148137848
:203650005149002B6FD05B1F08D01B1F012B4DD99B1E012B68D99B1E6DD088E04B494C4BC9
:203670004A880280022A4B4803602DD940F20443D21A26D0521E27D040F2FB33D21A17D0C9
:203690004FF44063D21A1FD0521E1AD0521E012A1AD9121F15D0521E16D0521E11D04FF471
:2036B0007E73D21A10D0521E0BD0D21E09D010E041F206424A808A7B252A0CBF2722521E1C
:2036D0008A73354901600AE0002006F031FC852003E0002006F02CFC842007F015FABDE8BC
:2036F0007C402E480078012101F0B4BD4A88028040F2044082421CBF41F2084082423ED0D6
:2037100041F60400824211D1254C264A2568264800680023CDE9002355F8086F234B022222
:20373000B0472349088073BD49880180002006F0FFFB85201FE04A880280022A0DD940F2C0
:203750000440121A1BD040F6FC70121A05D0083A15D04FF47F70121AE8D1887B801CC0B20C
:20377000B528A8BF662088730020488073BD002006F0DEFB8420BDE8764007F0C5B973BDC9
:203790006F4F0020504F0020CC4C00209C4C0020B3A70000204F0020CD6800006E4F002041
:2037B000F04E002002000080EC4E002049970000424F00202DE9FF415648017800293ED08A
:2037D000052940F09F80544C2168086800F10806307810F00F0F1CBF00F00F01062907D01D
:2037F00000F00F02022A1CBF00F00F0001281FD10622B11C684606F099FC3078474D484F98
:20381000C0F3801800F00F0001283BD1062206F1080102A806F08AFC3678F60902A93046FD
:2038300007F06EF9D0B13868807C022818BF03286ED105F10D0102A807F05EF9002867D037
:2038500039680120C8720622607940F00400607102A938680C3006F069FC13E029788E4210
:2038700010D10622691C02A806F046FA50B12878617960F38201617106223868691C0C301E
:2038900006F054FC6946404607F03AF900283FD060696946001F07F02BF9C8BB29466846EA
:2038B00007F022F93968897CFF281FD01D2250432E18002918BF02290BD0012918BF0329DF
:2038D00026D12A5C6069711C001F07F009F910281ED060696B46F21D3146001F07F0FCF8BD
:2038F00006226946F01D06F021FC11E0002918BF02290DD16069012342466946001F07F08D
:20391000E7F805E0002006F013FB862007F0FCF8BDE8FF816F4F0020D04B0020AC450020CF
:20393000144F00202DE9FF4104466668A7680D4606F056FF3178012903D1FDF7ABF800207B
:203950008FE001213170FDF7A5F8287870706878B07068687060A868B060E868F060286923
:203970003061287D3075687D7075A87DB075A869B061287F3077687F7077A87FB0774FF07D
:203990000008C6F82080C6F83080454675627563B562B56386F82C50102386F83C3086F845
:2039B0002D5086F83D50786801F084FE204601F033FF204602F062F960B9386806F03CF9FC
:2039D000786801F005FD06F00BFF3570FDF762F82C4645E0684606F033FD0094387B224AF3
:2039F0000190B9686B4606F1800004F08FFE684606F03EFD00941D4938696A46029006F1A9
:203A10009C0005F057F8B07830B906F1D000294605F066FE16483061707830B906F1EC0073
:203A3000294605F05DFE1348F060684606F098FE01958DF800501049029406F584700A225D
:203A50006B4604F017FCB969FA6906F1400006F0D4FC0A4A06F16C000421234605F030FFB3
:203A700020460090BDE8FF81B94300004D8D000061A7000059A700003D61000041A50000B9
:203A90007CB54E4D044668680E4628B94FF00040002103F08FFE6860002127A30A4605F0E3
:203AB000CFFE204628A3801E04D0801E37D0401E22D00EE06868012E05D000210A4605F069
:203AD000BFFE24A331E000210A4605F0B9FE26A32BE0686800210A4605F0B2FE6868022177
:203AF000002227A305F0ACFE01208DF801009DF801000028FBD17CBD686800210A4605F08B
:203B10009FFE68680221002223A305F099FE01208DF800009DF800000028FBD17CBD686859
:203B300000210A4605F08CFE1FA368680221002205F086FE7CBDC0463E3E3E535441434BC6
:203B500020415353455254002A2A2A4552524F522A2A2A003E3E20494E5445524E414C20C4
:203B70004552524F522100C03E3E20494E5445524E414C204657204552524F522100C04643
:203B90003E3E2044454641554C54205350494E4C4F434B2100C046C03E3E204943414C4C09
:203BB0002041424F525421003E3E204F5554204F46204D454D4F52592100C04608020020A9
:203BD0002DE9FF474C4D95F8E70000287DD141480124414F006885F8E7403E7B85F8E66030
:203BF0007B68C5F81031C0F3801085F8E80001A806F0B6FD002605F10C00029601AB8DF8E9
:203C1000046036490396324604F034FB344905F1300001AB324604F02DFB324905F15400D5
:203C300001AB8146324604F025FBB96820468847DFF8C0802C4808F104037A7B00781868A7
:203C5000C0F3815A22B1BAF1030F04D185F8E140BAF1030F1ED0BAF1020F1BD0BAF1010FB6
:203C70002CD14FF08059D9F8A401204F456831464FF040521C23032000903846A847D9F815
:203C9000A40131464FF400720923456800943846A84713E0022005F085FBBAF1030F0CBF57
:203CB0004FF47A7142F2107111480068B1FBF0F1484606F08DFD484606F08CFD40460068BA
:203CD000C00802D2304605F06DFB00200090BDE8FF87C04614100940DCB900005B8900009E
:203CF0004D67000025650000B31F002000A00C40A01F0020B03F0050C01200202DE9F84F2B
:203D10005FEA00091C46924600917DD0081C7BD0BAF1000F78D0002C7BD0206A002873D04C
:203D30003F4D616A281D006800296DD0A16AFCF7FDFC40B2002808BF6FF002055FD084F820
:203D50002C002078618800EB40004018216A0C3080B288473149AB46086030B9DBF80400C8
:203D7000FCF7E8FC4FF0FF3549E08846638860882178D8F800605A183518B71803EB410099
:203D90003618204604F09AFA2078C01C8010286020783F1DC01C8010386020780836C01CA1
:203DB0008010306022784946281D01F0CDFE28463A463346014606F087FE45B22278009857
:203DD0003B1D194601F0C0FE22785046311D01F0BBFE22786188D8F8000002EB4202521857
:203DF000002102F0E2FE616AD8F800008847DBF80400FCF79FFCE8B2992808BF002584F82E
:203E10002C502846BDE8F88F1CB16FF0010084F82C006FF00100BDE8F88FC046884F00201E
:203E3000501800202DE9F0410746FF2F1ED106F011FC10F0070F16D0042004F0B7FF08B1B3
:203E500004200AE0012004F0B1FF08B1012004E0022004F0ABFF20B10220BDE8F04104F044
:203E7000C1BF06F065F80020BDE8F08104F0BAFF8046012FD8F80450334E04D0022F29D0E3
:203E9000042F3DD0EFE7022004F090FF80B1022004F0A8FF074601207C6804F087FF28B1C4
:203EB000A0683118A86806F00BFE88B13846DBE7042004F07BFF28B1042004F093FF0746B7
:203ED000012026E0012004F071FF08B94FF000084046C9E7042004F069FF28B1042004F077
:203EF00081FF0746022014E0012004F05FFF28B1012004F077FF074602200AE00220E2E7B4
:203F1000012004F053FF88B1012004F06BFF074604207C6804F04AFF0028C7D0A0683118D0
:203F3000A86806F0CDFD0028C0D1D1E7022004F03DFF30B1022004F055FF074604207C683E
:203F5000E8E70420BFE700BF589EFFFF70B50C46E00788B00BD506F09BFA28B10021816029
:203F70003448006800B1804784F0010060E0E00413D53148C11D0D3006F09EFD2F4842680E
:203F90002F4800784FF4805104F05CFB10B18E2002F056FC84F480504AE0A00505D506F029
:203FB00029FB284901200860FEE7610504D504F060F984F480603BE0600405D5812002F01E
:203FD0003FFC84F4804033E0A00430D51E4D286810B1002005F0ACFF4FF0FF30286006F03A
:203FF00067FD1A4D296851F8202F684690471848016A426A2D68009101921649029100F125
:2040100028014A6809781368C06903938DF81010ADF812006B462E680F4A10491048B04756
:204030001049086001F08EFA84F4005000E0002008B070BD204F0020AC450020784E002003
:204050006E4F0020FC002043044F0020F04E00205816002091A400002C4D0020684500201A
:2040700088490020EC4E00202DE9FE4304F0F2FEDFF80C81814608F1020001880027081FAD
:2040900084B26FF00300401880B204285ADBFF254FF6FF7620466946042205F03BF9BDF896
:2040B00000309E4237D0002B35D0D80BC2032FD19D422DD0381FDDB280B2042815DBB0F54C
:2040D000805F12DA00F18852126801A90A60BDF804108D4207D0BDF80610401A001F80B2C7
:2040F0000428ECDA01E0012300E00023BDF802001BBB211A001D8BB282B207F18851184631
:2041100005F008F9BDF802003F183F1DBFB214E0BDF8020011E0BDF8020003466FF30E03AF
:2041300063B9011D8C4208DA002005F001FF484605F0F0FE0020BDE8FE83241A241FA4B2E2
:20415000042CA7DA04F03AFA3FB10C484FF088513A4606F0D3FA06F01FF9484605F0DAFE6E
:204170004246507800281CBF0020011C03D1C7F58054391DA0B25180BDE8FE8304E00100B7
:20419000D41500202DE9FC410746BE6833687D68986B20F4FA609863AC6B44B13168886BBC
:2041B00040F4FA6088634FF0FF30BDE8FC81AA6329630024EC776C630CE09DF80000296BE2
:2041D00008706B6B286BAA6B401C2863581C6863501EA863A86B90B93168886B40F4FA60C4
:2041F00088636A6B6878296B0128A1EB0201296303D1EB68384698476A6B144646E005F168
:204210004000694604F082FB0028D6D506F0E8FA204F8046387820B9022005F0C3F80120D2
:2042300038704046FCF736FC1B49086840F4007008603168886B40F4FA6088636878D8B9C5
:20425000696805F1EC0006F0E1F890B1AC6306F0C7FA0646387818B1022004F08FFF3C70B0
:204270003046FCF717FC1027696B286BEF77401A2863686BBDE8FC8195F82D0030B1686B66
:2042900020B1AC6305F19C0006F0C8FA2046BDE8FC81C046AC1F002030100040F8B505F049
:2042B000C1FE3F4E3D4F0446A00822D3796A01B33D46002068628A69086906F10803204065
:2042D000104340F0020088610A6918689043186001F1100090E80C0030681A1C904330606B
:2042F00005F12C0004F064FF022105F1D00006F093FA786AA10814D200F110020CCA00215E
:2043100022400B4008BF002A0BD0016985690C40B8622C434FF48041846107F1D00006F040
:204330007BFA786A002837D107F12004204606F067FA051C30D0F868E968884226D1A8686A
:2043500004F0A4FD17490860E0B906F1080128690A6810430860326805F1100393E8030078
:20437000081C1043306000233361A86846F80C0C06F1100000680028FAD0204605F06AFEE5
:204390007D62F8BD086802F0BFFFF8BD07F1D0004FF4805106F040FAF8BDC0468810002025
:2043B0000C100440941F00202DE9F8438146D9F808703868066CD9F8045046646A6CAB6C8B
:2043D000A86B16F4F06F0146A2EB03082AD1F00911D270095DD301B395F83C40641EA142D0
:2043F00098BF0C1C4846214605F0B1F8A86B001BA8630DD04DE081B1484605F0A8F895F876
:204410002D10A86311B9002843D101E00020A86305F19C0006F002FA3BE04846414605F089
:20443000C7FA36E0F20A19D24FF00008444602E0A86B401EA86340B34846012105F087F868
:204450003868446814F00F04C0F80480F0D0286B401E2863686B401E686316E03868446833
:204470000022202904F00F044260CCBF20270F1C4846394605F06BF8C7F12007B845C8BF53
:20449000B8464846414605F093FAEC77484602F007FFB0090BD3A96A49B10F46484605F012
:2044B0006DF8A86218B94846391D03F065FDBDE8F883704770B53F4E3168054682B00024B0
:2044D0000020D9B12A78012A0BD02A7A05F109036946012006F0E8FA00B104782978042931
:2044F00012D031684A78032A18BF54EA02010BD020B1012A04D114F0030F05D1002076BD3F
:20451000022AFBD1E007F9D56878A91C03F0CEFD0400287826D0042814BFA068E06880B35F
:204530002A7A017891420CD105F10901401C05F0E3FB012805D1232006F0B2FA002836D05D
:20455000DCE72878042806D0A068D0B105F0B8FF0020A06015E0E06898B105F0B1FF002046
:20457000E0600EE00428C9D005F0FCF80400C5D028782070062268786070A91CA01C05F038
:20459000D5FD287A401C80B205F092FF60B12978042914BFA060E060297A00F8011B05F1E4
:2045B00009012A7A05F0C2FD287A0028A6D0012076BD00BF984E0020FEB5384C206806F07B
:2045D0006BFA002868D00079032865D1344D0DF10901A81D019100900DF10A032A4602A996
:2045F0000DF10B0000F06EFD2E490878F0B19DF80800294606F084FAC0B19DF808102A4E99
:204610002A4601F00101304606F042FA0746FF2F0CD01D204743F019411C0622284605F070
:2046300085FDF05D40F002008DF808001F490868C27C012A1FD1807C002818BF022810D1A5
:204650001B4E9DF808202946304606F01DFA1F2811D19DF8082000232946304606F038FA1C
:2046700009E0012818BF032805D19DF808201148294606F009FA9DF909009DF80A309DF8BF
:20469000081001902A46A81D00909DF80B0006F0F7F9206806F0F0F9F7BD00BFD04B002001
:2046B000FC1E0020784E0020AC450020144F0020A8480020CC4700202DE9F04707467D6874
:2046D000D7F8089090460E4606F08AF88246A86A002864D105F5847006F07EF80024EC77A9
:2046F0002E6250466C62FCF7D5F906F079F82F4E3378824623B9022004F054FE0120307099
:204710005046FCF7C7F92A49086840F4807008603846414604F032FFA862C0B9384641461F
:2047300003F02AFCA878D0B9A96805F1D00005F06DFEE8B1AC621020E8774946284602F04B
:204750006DFA06F04DF88246307840B323E0D9F80010886B40F020008863A87810B12046EB
:20477000BDE8F087A96805F1D00005F04FFE10B9686ABDE8F0873846414603F0FDFB10201D
:20479000AC624946E877284602F048FA06F028F88246307818B1022004F0F0FC34705046E0
:2047B000FCF778F94FF0FF30BDE8F087AD1F002030100040F8B5071C73D0B86840F6030122
:2047D00020264A1C02E04068761EF6B260B15EB10388994218BF9A42F5D1F9681CC82031C2
:2047F0001CC149C881E849007868BA690025BD61C8B1F87F42F00202002300F00700401E25
:2048100009D0401E04D0801E08D14FF0805304E04FF0804301E04FF000532A467C68F868E7
:20483000B7F91C10A04705F0DBFF1E4C0646343CB4F93200401C6FF31F30608604F12C00BD
:204850000168CD7705F006FC3046FCF723F9F868B0F99410B4F93220914222D121780129EA
:204870001FD090F89660BEB90668AEB1E2680E4912680968B2F1FF3F13D0B6FBF1F2012A68
:204890008CBFB6FBF1F10121703005F0A1FFF868703005F09FFFF8BD80F89650284602F0CD
:2048B00033FDF8BDBC100020A01F00202DE9F04390460A68D8F800401678814600271D46B8
:2048D0003846ADF1140D531C242E0B6053D112F8016F5B1C4C2E0B600ED1AA68E41C24F060
:2048F0000304241D54F8040C494603F077F82968EF600127091A2960462E1AD1E41C24F0EC
:204910000304241D54F8040CE41C029024F00304241D54F8040C002749460390AA68ADF899
:20493000047001A801F072F82968EF600127091A2960532E1FD1E41C24F00304241D54F822
:20495000040CE861C8F80040288B0090A968EA69D9F800004346FCF7A1F8D9F80040002729
:2049700014B10119C9F80010D8F800402968EF60091A01272960662E0AD12B8B23B9E41DB1
:2049900024F00704083403E0E41C24F00304241D1FB9E9690E700127EF60C8F8004005B099
:2049B000BDE8F083F8B5344C0D46A80842D2E80861D301250420E57204F0F4FC2F48006803
:2049D000006B8047606104F1200005F019FF00280EBFE068C068E060406829490078086013
:2049F000022004F0DFFC112000F064FEA571E168087C10B12079012803D00E2000F05AFE84
:204A1000E16849681F488F680FB9CF681FB10021C1611D4F07601D4A40F2FF7111600027A8
:204A300087611B4941611B4805F0CCFD192005F0D9FEF8BD04F12C06304605F0E1FEFFF736
:204A5000B9FE304605F0DCFE25F0020504F1200158B9E80803D2084605F0D2FE58B104F131
:204A7000AC0005F0B9FE042101E045F0020104F1D00005F0D1FEF8BD881000208C010010FD
:204A9000D021084000100440510007060000046002000040792700002DE9F04786000D46AF
:204AB0003348DFF8D0800168824606EB0109280F2CD2680C0DD2E80B424600F00C001018F1
:204AD0008169AF0C07F03C001218D46801270C4305E0E80B424600F00C001458002705F02D
:204AF0007FFE012F05D1290D2CBF23494FF000410C43DAF8003021499A5905F47F07114098
:204B100047EA01029A51FBF7C5FF00E0002415F0E06712D005F064FEDAF800209159AB0D93
:204B300021F08E410F4303F01C019751474607F1280251580C43FBF7ADFF99F80000104F06
:204B500099F801100443386831B9214602F0DCFC012089F8010007E0290F2CBF4FF4E021B0
:204B70000849224604F0F0FA0020BDE8F087C04664B90000F4B6000000004080FFFF00BF08
:204B9000F0140020007FC7672DE9FE4F394D4FF0000A934688460290AD1E85F801A002F0EE
:204BB000FBFF071C16D0ABF1010944465646384601A9012204F0AEFB9DF8041019F8010F64
:204BD000884205D17F1C641E06F10106BFB2EED1B0454CD06F8808F103004FF6FC7640F6E9
:204BF000FC7106EA0004E019814204DA05F070FCFFF73AFA6F88F61C44F40040ADF8006099
:204C1000E319ADF80200694601229EB2304602F095F9BDF80200694601226FF3DF30ADF82A
:204C30000200304602F08AF9A0105946C2B2384602F084F902986946012240F40040ADF842
:204C50000000304602F07AF9BDF80000694601226FF3DF30ADF80000304602F06FF968781C
:204C700020B968882418241D6C8000E082465046BDE8FE8FD61500202DE9F84F374E04464B
:204C9000B0688047364D014605F108021068201810600846F1688847286800285BD0A946F3
:204CB0004FF0000807463546C246A868804756461FFAA4F3834683B95FFA94F36BB93979EF
:204CD000E0B2884204DD79682046884209D20AE03879E1B2401A387108E079682046884271
:204CF00001D3314601E07968091A7960B88878B9FB8853B9FB6843B13B8933B1B87A19460B
:204D100000F0A8FAF8687860B88808B9FB880BB13B896BB9B8F1000F04BF3868C9F80000B5
:204D300003D03868C8F8000038683E46074601E0B8463F68E9685846884756B1B08828B95B
:204D5000F08818B9B07A318900F084FA304605F0B7FB002FA9D1BDE8F88FC046D4130020A9
:204D7000641F00202DE9F0470D4606465FFA85FA280824BF2E4845402E494FEA8A03C85851
:204D900085EA00023240C2F300672B4A06EA0504B043224006F4E0240243B4F5E02F01D174
:204DB000500E14D306F4E020074310D002F4E027B7F5A02707D0B7F5803704BF22F40032C5
:204DD00042F4A02203E022F4803242F4C022DFF86C80CA5008F1D00739680122002002FA7B
:204DF0000AF40C4218BF101C5FEA000906D1F00D04D34146C5F3805001F80A00300E0BD329
:204E100005F0EEFC290E34BF0021211C3A68A24311433960FBF73EFEB9F1000F06D0F00DED
:204E300004D34046C5F3805100F80A10BDE8F087006000A000100840007F077F002002408F
:204E50002DE9F843DFF8CC800746D8F80000002400281EBFDFF8C090D9F80400002856D03E
:204E700039000BD199F80010002505E02A01835CFF2B18BF641C6D1C8D42F7DBE4B2E00037
:204E9000083080B204F028FE060005D1082004F023FE0646002413276EB3D0203070777023
:204EB0000120B070F47020001DD006F108077760002599F80000854217DAE0B2A8B1D9F829
:204ED000041028010A5CFF2A0AD008443A70062241787970641E811CB81C05F027F9083715
:204EF0006D1CEDB2E5E7002070603146D8F80000007804F021FF99F80000002101F05AFDF1
:204F1000D8F8000005F0DCFA0020C8F80000BDE8F18300BF984E0020D81700202DE9F043D0
:204F3000DFF8BC808946054617464FF0FF31ADF1140D404605F06AFA2A4C04EBC5046668CE
:204F5000256805F04DFC2168096800290BD42968002905DCB9F1000F09D04FF0FF3108E0F0
:204F7000B9F1000F03D0FBF795FD002430E02968491C2960FBF78EFD2868022828DA1FB94D
:204F900003A8FCF731F803AF38686860B768684605F056FA307B144A00946B4639460190B0
:204FB00005F12C0003F0B2FB05F16400002104F097FB05F14800012104F092FB706800F075
:204FD00079FB0A4A05F118002346042104F078FC404605F019FC204605B0BDE8F083C0462C
:204FF000241F002048BA0000119A000051A70000F8B505F0FFFA02F01FF905F013FB0546A6
:2050100005F00C000C284CD0E8081ED204F002FC264E376804460120014604F0ECFE316821
:205030006143884211D2224EF020B0FBF7F0211A304605F01DFD304605F016FD0120FDF7AA
:205050006BF8304605F00CFD2DE0280929D2194CA4F1200620688168174888470746042FF1
:20507000F8D01648690905D227B101460A6822F0010203E001460A6842F001020A60983107
:205090000A6842F003020A6030688169202088470B4C37682068B86B8047012020602068CB
:2050B00001E005F08DFB05F0ABFAF8BD90BA0000CC120020D8010010004003408C2108408A
:2050D0002C2009402DE9F8430C462F490546086890461E4605F0E0FC814699F804100329B2
:2050F0001CBF002004F024FF99F80870B80900F00100207009F10A0499F80910881F30704A
:20511000C0B22028A4BF002004F012FF062014F8011B08F8011B401EF9D107F00F07062F69
:2051300014D8DFE807F011040B1310130E0001202870A41D3078811F31700CE00321297045
:2051500009E0022000E00420287004E0FF202870002004F0EDFE0898002104E014F8012B21
:2051700000F8012B491C3378CAB29A42F6D32178802918BF81290FBF7F21044A1078091AA0
:2051900009980170BDE8F183D04B0020704F00202D482DE9FE4300882C4DADF80400287E9E
:2051B0008DF80500287E2A4E00907068002116A30A4604F045FB8020022101AAFFF7E4FC2D
:2051D0000FF2680828B17068002143460A4604F037FB05F1B40900242E2710E0A4F17F004D
:2051F00007FB04920D21C0B2FFF7CEFC28B17068002143460A4604F023FB641CE4B2287E2E
:20521000A042EBDCBDE8FE837573725F636E742E746F74616C5F7461673A2025643C3D3D2B
:205230003D3D3D3D3D3D3D3D3D0D0A006F73616C5F736E765F7772697465206D61726B6503
:2052500072206661696C00C064BA000088080020080200202DE9F843DFF8B0802A4E8146C1
:205270000C4639F07F0018D1B9F1050F12DA284DA86880472349096831F81920144321F896
:205290001940E9688847306841461431426A0868904734E00320BDE8F883042004F01CFCA7
:2052B000071C08BF04202BD04FF6FF7038807C8005F00CFA41468C78A7F10C05FF2802D045
:2052D000896A40184479FF2C08D1384604F024FD3068806880470120BDE8F883484604F015
:2052F0003BFD33680146FF20A8721D68002220463B46A84718B1384604F00EFDEBE7002096
:20531000BDE8F883A41F0020D818002018170020D4130020F8B5012004F0F8F9071C4DD021
:2053300005F05EFA294C216919B92761FBF7B2FB04E0FBF7AFFB384605F080F920694FF0E4
:20535000FF3105F063F82078002834D104F1140004F1080100F046FC1949606005F05CF953
:20537000FF2204F134012020401E01F8012BFBD1144DA868002713E02968BE008859C00FB9
:2053900003D28959F8B2FFF787FBE868B84205D96868315811B1F8B203F03AFEA8687F1C61
:2053B000B842E9D8084A04F120000421002304F087FA01202070206905F026FAF8BDC046F4
:2053D000359A000064B9000055810000EC1400202DE9B043044605F003FA81462748021945
:2053F00092F8EF10491ECFB2002F82F8EF703FD1254901EB84014A880C78904634F07F075F
:2054100018D1E1090FD24FF0805000F5DC75D0F8B8018169104688472868416B4046884752
:205430000228F9D11EE000EB8800D0F804110020884717E04FF08055D5F8B801016A1046D9
:205450008847D5F8B801816A40468847D5F8B801016B404688470A490120086009490868C2
:205470008008FCD304F03F003F2801D0FFF7B0FF4846FBF70FFB0020BDE8B083C012002041
:20549000282008602820084090B50000294838B5001D0468B4F1FF3F08BF002404F0DEF8F8
:2054B000032833D12448254B194A002501211038056003F15C00224B0160181D116000684E
:2054D000806C80471348006820B113480068204600F0BEFE114812490560124C0A686FF355
:2054F0005B4244EA020008600F490868C0F30130012806D10A680D48104040F400320A60D4
:2055100008600B4908680028FCD138BDFEE7C0460822044380012843000120438C210840C4
:20553000482003400000390104000940FFFFFCFC0C006842181300509404604200600C401C
:20555000EC01001038B51E4C1E4B2568186855F8183F00224FF0FF3198471B481B4A416BE9
:2055700088684179117005F077FA194805F070FA05F06AFA17490A680020507103F0B8FA19
:2055900005F05EFA1449154A0020087010801B20134A10804FF4A471124A1180FB20124AE6
:2055B0001249108040F648000880FB21104A1180104A108005F040FA0F490020087032BDEB
:2055D000F04E0020EC4E0020ACBA0000714F0020CC470020144F0020794F0020524F00205E
:2055F000444F0020464F0020484F00204A4F00204C4F00204E4F00206F4F002030B5274819
:20561000254908602648ADF1140DFDF791FEFFF781FE24480468244802680023D907500876
:2056300022600143D007801A99414FF47A720023FCF7A0FF002908BFB0F1004F28BF6FF03F
:2056500000406060194C0025032004F1240141F80C5F401E8D60FAD104F154010620401EEB
:2056700021F80C5BFBD101F0C1FB626810480392416801910368009381680291684601F016
:20569000D9FF03F063F903F0F7F902F04BF905F0CFF9284605B030BDD0180020913A00001A
:2056B0009CB700001418002090BA0000D413002034B90000F8B5064605F092F8264D0746C5
:2056D000A91991F8EF00421C002881F8EF203ED1224C04EB8604267806F03F003F2801D071
:2056F000FFF7E8FF648836F07F0018D1F0090FD24FF0805000F5DC75D0F8B8014169204683
:2057100088472868416B204688470128F9D11EE005EB8405D5F804110120884717E04FF0C7
:205730008055D5F8B801C16920468847D5F8B801416A20468847D5F8B801C16A2046884753
:20575000074901200860074908688008FCD33846FBF7A0F90020F8BDC012002090B5000034
:2057700028200860282008402DE9F04114460F4605F05AF91FFA80F824480068007808B9FD
:2057900004F0E4FB0FB338684FF0FF3518B140280AD3810B08D17E681EB1310A04D0310EDB
:2057B00002D1B9680F2908D93DB10CB1284620700820FFF70DFE002422E04FF08055D5F8F3
:2057D000CC11BA680B68796808E04FF08055D5F8CC01036801224FF48070014698470C4994
:2057F000012008600B4905F5E67508684008FCD328684168022088470CB1002121700446FD
:205810004046FBF747F92046BDE8F0818CB70000A802504208800240F0B5284D05F12C01BE
:2058300058C9ADF11C0D02AA58C20AC982E80A0084684668206804F0FFF9216820488A6B6F
:2058500010408863206840F2F271416496F83C0096F83D10C0100DEB800080680843216892
:205870004863684604F0B0FF317F05EB810120688B68717FB26955F821101943B37F05EB78
:205890008305AB690B43019904F0B4F90D490A1F106840F010001060086840F00100086023
:2058B000A07D0027FF2802D0E07DFF2800D11FB1086840F44040086007B0F0BDB4B600001C
:2058D0000DF8FFFF301000402DE9F041904606460F1C08BF05243FD036F07F0003D02248C0
:2058F000006880688047052EA8BF032407DA57F80C0C18B917F8020CFF2804D005243846E8
:2059100004F00AFA28E007F8026C154C154DA068B8F1010F13D080470246002047F80C0C1D
:20593000A868002808BFAF6005D0014651F80C0C18B941F80C7C104606E00146F6E7804713
:20595000A96847F80C1CAF60E168884730464FF40041FFF77FFC00242046BDE8F081C04687
:20597000D413002018170020D8180020F0B520480127F84201D002F00BFC204D204F214E2D
:20599000BD4206D203CD0478A4003459401CA047F6E71D48002800D08047164D164FBD4298
:2059B00002D210CDA047FAE7F0BD03251BE0416808300A1C2A400BD11A1C2A40AB4305D0DE
:2059D000046804300C600431043BF9D1131C05D0047801300C700131013BF9D1021C2A4080
:2059F00001D0A84304300368002BE0D17047C046FFFFFFFF0000000000000000ACBD00003E
:205A100014BE000064BD000015C401102DE9F843002A894607464CBF47F6FF75151C002FE6
:205A300008BF002033D03888002808BF002403D02A4600F007FA0446281B002826DD3888ED
:205A500028B1291B484613A202F01EFE0419B868E0B1D7F804802E1BB8F1000F0DD0404643
:205A700004F090FC401DB04207DC291B48460AA2434602F009FE04192E1B122E06DBBB68BA
:205A9000291B484606A202F0FFFD04192046BDE8F883C0463A2000C0222573222C2000C0E3
:205AB0006C696E652025643A200070472DE9FE4F244C80460CAF1E460192A0683D780091DB
:205AD0008047A146B8F1000F029005D1D9F80C1088470220BDE8FE8F174800274FF00F0BF9
:205AF0004FF0010A041F54F8080FD8B9012D0CBF124B134B1048019A008897FBFBF1401830
:205B10000AFA07F1C0B2984760B90098C4F80080606006B13770D9F80C10029888470020A7
:205B3000BDE8FE8F7F1C0F2FDDDBD9F80C10029888470820BDE8FE8F70140020F18B0000C2
:205B500055860000D4130020002A4AD05FEA000C8B071CD1830722D1102A08D370B4103A3B
:205B700078C978C0103AFBD270BC103238D0042A2CD3082A05D30C2A24BF08C908C008C955
:205B900008C008C908C092072AD0920F22E00B780370491C401C521E22D08B07F7D1C30721
:205BB00014D18307D8D0121F12D308C903801B0C4380001D121FF8D20AE008C903701B0AFF
:205BD00043701B0A83701B0AC370001D121FF4D2121D05D00B780370491C401C521EF9D189
:205BF000604670472DE9F843234D884606464FF0FF3105F12400814604F008FC00200CE009
:205C1000FF2909D02A688A4204D905EB8101D1F894700FB1002627E0401CB8F1000F03D025
:205C300018F82010FE29EBD10024346074600127B46011E0FF280ED005EB80000B787268A6
:205C5000C0F8946007FA03F0104370600A680949304603F079FA641CB8F1000F04D008EBD2
:205C700084010878FE28E5D1484604F0CDFD3046BDE8F883007FC767241C0020B0B5456832
:205C900084682349607DA27DADF1180D40F000400090207D0027FF2A41EA000001904FF0F5
:205CB000020002D0E27DFF2A00D13FB1E37DA07D1943039140F0004002900420FE214DF8C0
:205CD000201005F158006946FFF78CFF6866002808BF381C1AD0617D0F2203F0EBFC686E4C
:205CF000217D102203F0E6FCA17D3846FF2902D0E27DFF2A00D140B1686E112203F0DAFC3D
:205D1000686EE17D122203F0D5FC012006B0B0BD0000C0A070B5224D0446286882B008B14A
:205D3000112076BD1F49087810F00A0F01D1122076BD042004F0BCFB286070B3022004F027
:205D50006FFE28680422214604F0F0F904F064FE28B10C2004F0A4FE05460D200DE060789E
:205D7000022805D1122004F09BFE0546132004E0102004F095FE0546112004F091FE0646F0
:205D90000948007804F044FE0346E07800903246A078294604F038FE76BD132076BD00BF42
:205DB000984E0020584F0020594F00202DE9F8432020EFF3118780F31188214CA068012190
:205DD00004F01EFE4FF001094FF0000865692168A4F81C906A1A2168A4F81E80461B401A72
:205DF000904227D387F3118840464519361A4846294604F001FEB042F7D92021EFF3118713
:205E100081F31188E18B012903D14046294604F0F3FDB0F1FF3F06D0A169801B814238BF0E
:205E3000081C411901E0A069291804F0E1FDA4F820902560A4F81C8087F31188BDE8F8839B
:205E5000780100207FB503461F480D4601881F480088144614A6984205DB324621462846CF
:205E700002F012FC1DE0994206DB184603F0A4FF0028F2D04268F1E715480088002808BF25
:205E90000CA2EBD00095002C48BF47F6FF74114E0020114901946A46346802901846A04780
:205EB000029800907FBDC0467B6D6F64756C652325647D007B6D6F64756C652D726F706558
:205ED0003A25787D00C046C0DAB90000A8BA0000FE120000A4BA0000A59400002DE9F043B3
:205EF000224C81461D4604F108002F68006816468846ADF1240D1FBB0C2000F039FA071CB9
:205F100016D0684600212422082304F06DFD0023069749466A46ADF810301348059304F022
:205F30005FFD386038B904F06CF9384603F0BEF86FF0030015E0C7F80480BE602F6008E0BD
:205F500080470546386804F08BFDBE60E168284688473868494604F08BFD386804F084FD9F
:205F7000002009B0BDE8F083EDA50000D41300202DE9F0470C468046E00BC00318BF84F425
:205F9000004437D1002C08BF002034D0DFF870904E46B0688047194B824618880025012230
:205FB000294602FA01F73C4203D1491C0F29F8DB1BE0CA004546C601E9011B1DA6EBC00022
:205FD000A1EBC501561A451A8019195855195E19BDB211B11B18586888474046294603F0C6
:205FF000F9F910B9002030607060D9F80C10504688476C40A0B2BDE8F087C0467014002040
:20601000D41300202DE9F843214D0746A868804781462048836800246FF00B0680469C4234
:2060300013D013F8020C874208D134B16BB138464FF40041FFF70EF90CE01C460CB9A3F10B
:206050000C0653F80C3C002BEBD138464FF4004103F0E2F8ACB1A8688047D8F80810A4F124
:206070000807A14219BF54F80C1C316057F8041CC8F80810002147F8041CFF26BE71E968D5
:206090008847E968484688472046BDE8F883C046D4130020181700201F48F8B5006880692C
:2060B00080471E49204D0F686E68B7F57A7F13D0801B4FF47A720023A7FB0001FCF75AFA89
:2060D00004464FF47A72002304F048F83A460023FCF750FA801900E0841B6860114D05F1CC
:2060F0000800006880470E4E316877686118B1F57A7F0AD34FF47A73B1FBF3F2D219726012
:20611000B1FBF3F707FB03F2891A3160E96888472046FEF7B1FDF8BDD81800203017002059
:2061300040180020D4130020641F00202DE9F04107467868BE68044600F5847004F04CFB25
:2061500030681C4980690968C0F3C00008BB04F047FB194D8046287820B1022003F00EF8B4
:20617000002028704046FAF795FC3168134D886B20F020008863286820F480702860606A62
:20619000216A091A21622369626A38469847BDE8F0814FF4FA70B0FBF1F1012998BF012116
:2061B00004F58474204604F013FB204604F012FBBDE8F081A01F0020AD1F002030100040AE
:2061D0002DE9F04180461E4800680D46416927208847012404FA05F61A4DC5F80064C5F85E
:2061F0007C470327C5F8807717480460C5F88477D5F80404012818BFC5F80444C5F8FC637D
:2062100012480460C5F800801023AB60204604F0B9FAD5F88C074008F8D3D5F88C172046DF
:2062300011F0404F09D1C5F884770021C5F8FC16D5F80024164218BF081CBDE8F081C046DC
:20625000B00100100440024000E0484200004842204A2DE9F04180460124A2F13000046030
:2062700019480768002FFCD01B49184DC0200B1F28601868800806D253F8040C144B000C42
:2062900040F0F000187000204FF080571060D7F8F0010E68016830468847D7F8F001426852
:2062B000314640469047D7F8F001816830468847D7F8A001C1680220884740202860074E45
:2062D0003460BDE8F081C0469402224300600C405662084040100940B43F00509404604241
:2062F00030B50D46280483B011D51D490878FFF789FE040009D02078032812BF0128E068CC
:2063100001F0FAFE204603F007FD85F4004568070AD514496846D1E90023C0E9002308213E
:2063300001F08AFD85F0040528070AD50E496846D1E90023C0E90023082101F07DFD85F092
:206350000805E8060AD509496846D1E90023C0E90023082101F070FD85F0100528463EBD30
:20637000AE1F0020E4BA0000ECBA0000F4BA0000F8B5041D14F003001CBF241A241D03F00C
:206390002BFE1D4905464F690D61102C88BF8F69386800221646030821D226B9844209D9CF
:2063B0003A4601261EE01368C3189C42136019D817461846DFB1CA69001B042807D2386852
:2063D000121ACA61386840F00040386005E0385144F000403860121BCA613F1D07E080F029
:2063F00000400026C71938680028D4D10027284603F012FF3846F8BDD413002070B5064696
:206410007468B568606E03F0E7FC29681C488A6B10408863304600F037F8304600F040FF70
:206430002968C86A20F01000C862296815480A6B104008636868FEF7CBFF04F1800004F029
:20645000CDF904F19C0004F0E1F9A07818B904F1D00004F0D7F9607818B904F1EC0004F017
:20647000D1F904F5847004F0ADF904F0B9F900212170FAF70FFB04F16C0003F00DFC70BDDE
:206490000DF8FFFFFEFCFFFF2DE9F04106467568B46804F0A5F9A96A39B921688969090941
:2064B00003D2FAF7F7FABDE8F0810027AF62FAF7F1FAA17D3846FF2902D0E17DFF2900D1FE
:2064D00018B12846214600F0A9FB2168886B20F0200088630D49086820F48070086004F0BD
:2064F0007FF90B4C8046207818B1022002F046FE27704046FAF7CEFA686A296A091A296255
:206510002B696A6A30469847BDE8F08130100040AD1F00207CB51F4C3C3CE06B0168042040
:206530008847022818D0032816D018480068C0F38150032814BF41F288324FF47A72164994
:20655000164C09684C342046B2FBF1F104F040F9204604F03FF97CBD20680D4E456800213A
:206570004FF040521C23032000903046A8472068012500214FF4007209234468009530467C
:20659000A047022002F0FAFD7CBDC046B43F005000A00C40E0010010A01F0020C8120020C1
:2065B000FEB5214C251D2046294601F01DFC00260835606831464FF000424FF0FF3304F002
:2065D000C7FA0028F5D0009601A80DF106016A4602F056FE0028ECD1BDF8041001201029BB
:2065F00018D121789DF80620914213D1009A1178D0290FD197783FB957782FB91146C91CA1
:206610000B682B608988A980A7681FB1396809B11046884700990029CBD00028C9D0084667
:2066300004F0ADF8C5E7C046C80D002070B51D490A685379012B07D01B4C1C4D1C4EE0B173
:20665000012803D0122070BD0C2070BD307838BB05F10D0004F0C0F968B9726820784FF455
:20667000805101F0EFFF08B1032070BDE91D05F10D0004F021FA012011E0307880B105F158
:206690000D0004F0A9F948B920784FF4805102F051FC20784FF4805102F0BEFD0020307042
:2066B000002070BD144F00206E4F0020AC450020784E00207CB5040004BF002003F038FCE7
:2066D00016494C60606900B180476068017B01F00F0102290CBF806804F07AF9A06010497B
:2066F000104B0878002814BF0F4810480021CDE90001022261680E4C0E482568006855F84E
:20671000086FB0470C4910F1020F088004D1BDE87640002003F00CBC73BD00BF701F002063
:20673000784E0020499700000204848002048080F04E0020EC4E0020424F00202DE9B841FB
:2067500004F04EF81D4C1B4D804604F1E000007848B92C46A168022088470746102001F030
:206770004FFF17B31EE000F08FFC78B9124800683221B1FBF0F101B9012104F1300004F0B0
:2067900027F804F1300004F025F80EE0002084F8E0002C46A168022088470746102001F050
